{
  "_format": "hh-sol-artifact-1",
  "contractName": "CarbonCredit",
  "sourceName": "contracts/CarbonCredit.sol",
  "abi": [
    {
      "inputs": [
        {
          "internalType": "address",
          "name": "initialOwner",
          "type": "address"
        }
      ],
      "stateMutability": "nonpayable",
      "type": "constructor"
    },
    {
      "inputs": [
        {
          "internalType": "address",
          "name": "spender",
          "type": "address"
        },
        {
          "internalType": "uint256",
          "name": "allowance",
          "type": "uint256"
        },
        {
          "internalType": "uint256",
          "name": "needed",
          "type": "uint256"
        }
      ],
      "name": "ERC20InsufficientAllowance",
      "type": "error"
    },
    {
      "inputs": [
        {
          "internalType": "address",
          "name": "sender",
          "type": "address"
        },
        {
          "internalType": "uint256",
          "name": "balance",
          "type": "uint256"
        },
        {
          "internalType": "uint256",
          "name": "needed",
          "type": "uint256"
        }
      ],
      "name": "ERC20InsufficientBalance",
      "type": "error"
    },
    {
      "inputs": [
        {
          "internalType": "address",
          "name": "approver",
          "type": "address"
        }
      ],
      "name": "ERC20InvalidApprover",
      "type": "error"
    },
    {
      "inputs": [
        {
          "internalType": "address",
          "name": "receiver",
          "type": "address"
        }
      ],
      "name": "ERC20InvalidReceiver",
      "type": "error"
    },
    {
      "inputs": [
        {
          "internalType": "address",
          "name": "sender",
          "type": "address"
        }
      ],
      "name": "ERC20InvalidSender",
      "type": "error"
    },
    {
      "inputs": [
        {
          "internalType": "address",
          "name": "spender",
          "type": "address"
        }
      ],
      "name": "ERC20InvalidSpender",
      "type": "error"
    },
    {
      "inputs": [
        {
          "internalType": "address",
          "name": "owner",
          "type": "address"
        }
      ],
      "name": "OwnableInvalidOwner",
      "type": "error"
    },
    {
      "inputs": [
        {
          "internalType": "address",
          "name": "account",
          "type": "address"
        }
      ],
      "name": "OwnableUnauthorizedAccount",
      "type": "error"
    },
    {
      "anonymous": false,
      "inputs": [
        {
          "indexed": true,
          "internalType": "address",
          "name": "owner",
          "type": "address"
        },
        {
          "indexed": true,
          "internalType": "address",
          "name": "spender",
          "type": "address"
        },
        {
          "indexed": false,
          "internalType": "uint256",
          "name": "value",
          "type": "uint256"
        }
      ],
      "name": "Approval",
      "type": "event"
    },
    {
      "anonymous": false,
      "inputs": [
        {
          "indexed": true,
          "internalType": "address",
          "name": "redeemer",
          "type": "address"
        },
        {
          "indexed": false,
          "internalType": "uint256",
          "name": "amount",
          "type": "uint256"
        },
        {
          "indexed": false,
          "internalType": "string",
          "name": "emissionId",
          "type": "string"
        }
      ],
      "name": "CreditsRedeemed",
      "type": "event"
    },
    {
      "anonymous": false,
      "inputs": [
        {
          "indexed": true,
          "internalType": "address",
          "name": "previousOwner",
          "type": "address"
        },
        {
          "indexed": true,
          "internalType": "address",
          "name": "newOwner",
          "type": "address"
        }
      ],
      "name": "OwnershipTransferred",
      "type": "event"
    },
    {
      "anonymous": false,
      "inputs": [
        {
          "indexed": true,
          "internalType": "address",
          "name": "from",
          "type": "address"
        },
        {
          "indexed": true,
          "internalType": "address",
          "name": "to",
          "type": "address"
        },
        {
          "indexed": false,
          "internalType": "uint256",
          "name": "value",
          "type": "uint256"
        }
      ],
      "name": "Transfer",
      "type": "event"
    },
    {
      "inputs": [
        {
          "internalType": "address",
          "name": "owner",
          "type": "address"
        },
        {
          "internalType": "address",
          "name": "spender",
          "type": "address"
        }
      ],
      "name": "allowance",
      "outputs": [
        {
          "internalType": "uint256",
          "name": "",
          "type": "uint256"
        }
      ],
      "stateMutability": "view",
      "type": "function"
    },
    {
      "inputs": [
        {
          "internalType": "address",
          "name": "spender",
          "type": "address"
        },
        {
          "internalType": "uint256",
          "name": "value",
          "type": "uint256"
        }
      ],
      "name": "approve",
      "outputs": [
        {
          "internalType": "bool",
          "name": "",
          "type": "bool"
        }
      ],
      "stateMutability": "nonpayable",
      "type": "function"
    },
    {
      "inputs": [
        {
          "internalType": "address",
          "name": "account",
          "type": "address"
        }
      ],
      "name": "balanceOf",
      "outputs": [
        {
          "internalType": "uint256",
          "name": "",
          "type": "uint256"
        }
      ],
      "stateMutability": "view",
      "type": "function"
    },
    {
      "inputs": [],
      "name": "decimals",
      "outputs": [
        {
          "internalType": "uint8",
          "name": "",
          "type": "uint8"
        }
      ],
      "stateMutability": "pure",
      "type": "function"
    },
    {
      "inputs": [
        {
          "internalType": "string",
          "name": "emissionId",
          "type": "string"
        }
      ],
      "name": "getRedemptionsByEmission",
      "outputs": [
        {
          "internalType": "uint256",
          "name": "",
          "type": "uint256"
        }
      ],
      "stateMutability": "view",
      "type": "function"
    },
    {
      "inputs": [
        {
          "internalType": "address",
          "name": "to",
          "type": "address"
        },
        {
          "internalType": "uint256",
          "name": "amount",
          "type": "uint256"
        }
      ],
      "name": "mintCredits",
      "outputs": [],
      "stateMutability": "nonpayable",
      "type": "function"
    },
    {
      "inputs": [],
      "name": "name",
      "outputs": [
        {
          "internalType": "string",
          "name": "",
          "type": "string"
        }
      ],
      "stateMutability": "view",
      "type": "function"
    },
    {
      "inputs": [],
      "name": "owner",
      "outputs": [
        {
          "internalType": "address",
          "name": "",
          "type": "address"
        }
      ],
      "stateMutability": "view",
      "type": "function"
    },
    {
      "inputs": [
        {
          "internalType": "uint256",
          "name": "amount",
          "type": "uint256"
        },
        {
          "internalType": "string",
          "name": "emissionId",
          "type": "string"
        }
      ],
      "name": "redeemCredits",
      "outputs": [],
      "stateMutability": "nonpayable",
      "type": "function"
    },
    {
      "inputs": [
        {
          "internalType": "string",
          "name": "",
          "type": "string"
        }
      ],
      "name": "redemptionsByEmission",
      "outputs": [
        {
          "internalType": "uint256",
          "name": "",
          "type": "uint256"
        }
      ],
      "stateMutability": "view",
      "type": "function"
    },
    {
      "inputs": [],
      "name": "renounceOwnership",
      "outputs": [],
      "stateMutability": "nonpayable",
      "type": "function"
    },
    {
      "inputs": [],
      "name": "symbol",
      "outputs": [
        {
          "internalType": "string",
          "name": "",
          "type": "string"
        }
      ],
      "stateMutability": "view",
      "type": "function"
    },
    {
      "inputs": [
        {
          "internalType": "address",
          "name": "",
          "type": "address"
        }
      ],
      "name": "totalRedeemed",
      "outputs": [
        {
          "internalType": "uint256",
          "name": "",
          "type": "uint256"
        }
      ],
      "stateMutability": "view",
      "type": "function"
    },
    {
      "inputs": [],
      "name": "totalSupply",
      "outputs": [
        {
          "internalType": "uint256",
          "name": "",
          "type": "uint256"
        }
      ],
      "stateMutability": "view",
      "type": "function"
    },
    {
      "inputs": [
        {
          "internalType": "address",
          "name": "to",
          "type": "address"
        },
        {
          "internalType": "uint256",
          "name": "value",
          "type": "uint256"
        }
      ],
      "name": "transfer",
      "outputs": [
        {
          "internalType": "bool",
          "name": "",
          "type": "bool"
        }
      ],
      "stateMutability": "nonpayable",
      "type": "function"
    },
    {
      "inputs": [
        {
          "internalType": "address",
          "name": "from",
          "type": "address"
        },
        {
          "internalType": "address",
          "name": "to",
          "type": "address"
        },
        {
          "internalType": "uint256",
          "name": "value",
          "type": "uint256"
        }
      ],
      "name": "transferFrom",
      "outputs": [
        {
          "internalType": "bool",
          "name": "",
          "type": "bool"
        }
      ],
      "stateMutability": "nonpayable",
      "type": "function"
    },
    {
      "inputs": [
        {
          "internalType": "address",
          "name": "newOwner",
          "type": "address"
        }
      ],
      "name": "transferOwnership",
      "outputs": [],
      "stateMutability": "nonpayable",
      "type": "function"
    }
  ],
  "bytecode": "0x608060405234801561001057600080fd5b50604051611ff6380380611ff683398181016040528101906100329190610272565b806040518060400160405280600c81526020017f436172626f6e43726564697400000000000000000000000000000000000000008152506040518060400160405280600681526020017f435245444954000000000000000000000000000000000000000000000000000081525081600390816100ae91906104ef565b5080600490816100be91906104ef565b505050600073ffffffffffffffffffffffffffffffffffffffff168173ffffffffffffffffffffffffffffffffffffffff16036101335760006040517f1e4fbdf700000000000000000000000000000000000000000000000000000000815260040161012a91906105d0565b60405180910390fd5b6101428161014960201b60201c565b50506105eb565b6000600560009054906101000a900473ffffffffffffffffffffffffffffffffffffffff16905081600560006101000a81548173ffffffffffffffffffffffffffffffffffffffff021916908373ffffffffffffffffffffffffffffffffffffffff1602179055508173ffffffffffffffffffffffffffffffffffffffff168173ffffffffffffffffffffffffffffffffffffffff167f8be0079c531659141344cd1fd0a4f28419497f9722a3daafe3b4186f6b6457e060405160405180910390a35050565b600080fd5b600073ffffffffffffffffffffffffffffffffffffffff82169050919050565b600061023f82610214565b9050919050565b61024f81610234565b811461025a57600080fd5b50565b60008151905061026c81610246565b92915050565b6000602082840312156102885761028761020f565b5b60006102968482850161025d565b91505092915050565b600081519050919050565b7f4e487b7100000000000000000000000000000000000000000000000000000000600052604160045260246000fd5b7f4e487b7100000000000000000000000000000000000000000000000000000000600052602260045260246000fd5b6000600282049050600182168061032057607f821691505b602082108103610333576103326102d9565b5b50919050565b60008190508160005260206000209050919050565b60006020601f8301049050919050565b600082821b905092915050565b60006008830261039b7fffffffffffffffffffffffffffffffffffffffffffffffffffffffffffffffff8261035e565b6103a5868361035e565b95508019841693508086168417925050509392505050565b6000819050919050565b6000819050919050565b60006103ec6103e76103e2846103bd565b6103c7565b6103bd565b9050919050565b6000819050919050565b610406836103d1565b61041a610412826103f3565b84845461036b565b825550505050565b600090565b61042f610422565b61043a8184846103fd565b505050565b5b8181101561045e57610453600082610427565b600181019050610440565b5050565b601f8211156104a35761047481610339565b61047d8461034e565b8101602085101561048c578190505b6104a06104988561034e565b83018261043f565b50505b505050565b600082821c905092915050565b60006104c6600019846008026104a8565b1980831691505092915050565b60006104df83836104b5565b9150826002028217905092915050565b6104f88261029f565b67ffffffffffffffff811115610511576105106102aa565b5b61051b8254610308565b610526828285610462565b600060209050601f8311600181146105595760008415610547578287015190505b61055185826104d3565b8655506105b9565b601f19841661056786610339565b60005b8281101561058f5784890151825560018201915060208501945060208101905061056a565b868310156105ac57848901516105a8601f8916826104b5565b8355505b6001600288020188555050505b505050505050565b6105ca81610234565b82525050565b60006020820190506105e560008301846105c1565b92915050565b6119fc806105fa6000396000f3fe608060405234801561001057600080fd5b506004361061010b5760003560e01c806376327a91116100a2578063a7f8cf7f11610071578063a7f8cf7f146102a8578063a9059cbb146102d8578063ac5fcd6314610308578063dd62ed3e14610338578063f2fde38b146103685761010b565b806376327a91146102205780638da5cb5b1461025057806395d89b411461026e5780639bae87471461028c5761010b565b80633026a513116100de5780633026a513146101ac578063313ce567146101c857806370a08231146101e6578063715018a6146102165761010b565b806306fdde0314610110578063095ea7b31461012e57806318160ddd1461015e57806323b872dd1461017c575b600080fd5b610118610384565b60405161012591906111ca565b60405180910390f35b61014860048036038101906101439190611294565b610416565b60405161015591906112ef565b60405180910390f35b610166610439565b6040516101739190611319565b60405180910390f35b61019660048036038101906101919190611334565b610443565b6040516101a391906112ef565b60405180910390f35b6101c660048036038101906101c191906113ec565b610472565b005b6101d0610634565b6040516101dd9190611468565b60405180910390f35b61020060048036038101906101fb9190611483565b610639565b60405161020d9190611319565b60405180910390f35b61021e610681565b005b61023a60048036038101906102359190611483565b610695565b6040516102479190611319565b60405180910390f35b6102586106ad565b60405161026591906114bf565b60405180910390f35b6102766106d7565b60405161028391906111ca565b60405180910390f35b6102a660048036038101906102a19190611294565b610769565b005b6102c260048036038101906102bd91906114da565b6107c2565b6040516102cf9190611319565b60405180910390f35b6102f260048036038101906102ed9190611294565b6107ed565b6040516102ff91906112ef565b60405180910390f35b610322600480360381019061031d9190611657565b610810565b60405161032f9190611319565b60405180910390f35b610352600480360381019061034d91906116a0565b61083e565b60405161035f9190611319565b60405180910390f35b610382600480360381019061037d9190611483565b6108c5565b005b6060600380546103939061170f565b80601f01602080910402602001604051908101604052809291908181526020018280546103bf9061170f565b801561040c5780601f106103e15761010080835404028352916020019161040c565b820191906000526020600020905b8154815290600101906020018083116103ef57829003601f168201915b5050505050905090565b60008061042161094b565b905061042e818585610953565b600191505092915050565b6000600254905090565b60008061044e61094b565b905061045b858285610965565b6104668585856109f9565b60019150509392505050565b600083116104b5576040517f08c379a00000000000000000000000000000000000000000000000000000000081526004016104ac9061178c565b60405180910390fd5b826104bf33610639565b1015610500576040517f08c379a00000000000000000000000000000000000000000000000000000000081526004016104f7906117f8565b60405180910390fd5b60008282905011610546576040517f08c379a000000000000000000000000000000000000000000000000000000000815260040161053d90611864565b60405180910390fd5b6105503384610aed565b82600683836040516105639291906118b4565b9081526020016040518091039020600082825461058091906118fc565b9250508190555082600760003373ffffffffffffffffffffffffffffffffffffffff1673ffffffffffffffffffffffffffffffffffffffff16815260200190815260200160002060008282546105d691906118fc565b925050819055503373ffffffffffffffffffffffffffffffffffffffff167fd4a0567067ac018c6855e64cc798ac082dd6a212a92489cba4ae9837859c45348484846040516106279392919061195d565b60405180910390a2505050565b600090565b60008060008373ffffffffffffffffffffffffffffffffffffffff1673ffffffffffffffffffffffffffffffffffffffff168152602001908152602001600020549050919050565b610689610b6f565b6106936000610bf6565b565b60076020528060005260406000206000915090505481565b6000600560009054906101000a900473ffffffffffffffffffffffffffffffffffffffff16905090565b6060600480546106e69061170f565b80601f01602080910402602001604051908101604052809291908181526020018280546107129061170f565b801561075f5780601f106107345761010080835404028352916020019161075f565b820191906000526020600020905b81548152906001019060200180831161074257829003601f168201915b5050505050905090565b610771610b6f565b600081116107b4576040517f08c379a00000000000000000000000000000000000000000000000000000000081526004016107ab9061178c565b60405180910390fd5b6107be8282610cbc565b5050565b6000600683836040516107d69291906118b4565b908152602001604051809103902054905092915050565b6000806107f861094b565b90506108058185856109f9565b600191505092915050565b6006818051602081018201805184825260208301602085012081835280955050505050506000915090505481565b6000600160008473ffffffffffffffffffffffffffffffffffffffff1673ffffffffffffffffffffffffffffffffffffffff16815260200190815260200160002060008373ffffffffffffffffffffffffffffffffffffffff1673ffffffffffffffffffffffffffffffffffffffff16815260200190815260200160002054905092915050565b6108cd610b6f565b600073ffffffffffffffffffffffffffffffffffffffff168173ffffffffffffffffffffffffffffffffffffffff160361093f5760006040517f1e4fbdf700000000000000000000000000000000000000000000000000000000815260040161093691906114bf565b60405180910390fd5b61094881610bf6565b50565b600033905090565b6109608383836001610d3e565b505050565b6000610971848461083e565b90507fffffffffffffffffffffffffffffffffffffffffffffffffffffffffffffffff81146109f357818110156109e3578281836040517ffb8f41b20000000000000000000000000000000000000000000000000000000081526004016109da9392919061198f565b60405180910390fd5b6109f284848484036000610d3e565b5b50505050565b600073ffffffffffffffffffffffffffffffffffffffff168373ffffffffffffffffffffffffffffffffffffffff1603610a6b5760006040517f96c6fd1e000000000000000000000000000000000000000000000000000000008152600401610a6291906114bf565b60405180910390fd5b600073ffffffffffffffffffffffffffffffffffffffff168273ffffffffffffffffffffffffffffffffffffffff1603610add5760006040517fec442f05000000000000000000000000000000000000000000000000000000008152600401610ad491906114bf565b60405180910390fd5b610ae8838383610f15565b505050565b600073ffffffffffffffffffffffffffffffffffffffff168273ffffffffffffffffffffffffffffffffffffffff1603610b5f5760006040517f96c6fd1e000000000000000000000000000000000000000000000000000000008152600401610b5691906114bf565b60405180910390fd5b610b6b82600083610f15565b5050565b610b7761094b565b73ffffffffffffffffffffffffffffffffffffffff16610b956106ad565b73ffffffffffffffffffffffffffffffffffffffff1614610bf457610bb861094b565b6040517f118cdaa7000000000000000000000000000000000000000000000000000000008152600401610beb91906114bf565b60405180910390fd5b565b6000600560009054906101000a900473ffffffffffffffffffffffffffffffffffffffff16905081600560006101000a81548173ffffffffffffffffffffffffffffffffffffffff021916908373ffffffffffffffffffffffffffffffffffffffff1602179055508173ffffffffffffffffffffffffffffffffffffffff168173ffffffffffffffffffffffffffffffffffffffff167f8be0079c531659141344cd1fd0a4f28419497f9722a3daafe3b4186f6b6457e060405160405180910390a35050565b600073ffffffffffffffffffffffffffffffffffffffff168273ffffffffffffffffffffffffffffffffffffffff1603610d2e5760006040517fec442f05000000000000000000000000000000000000000000000000000000008152600401610d2591906114bf565b60405180910390fd5b610d3a60008383610f15565b5050565b600073ffffffffffffffffffffffffffffffffffffffff168473ffffffffffffffffffffffffffffffffffffffff1603610db05760006040517fe602df05000000000000000000000000000000000000000000000000000000008152600401610da791906114bf565b60405180910390fd5b600073ffffffffffffffffffffffffffffffffffffffff168373ffffffffffffffffffffffffffffffffffffffff1603610e225760006040517f94280d62000000000000000000000000000000000000000000000000000000008152600401610e1991906114bf565b60405180910390fd5b81600160008673ffffffffffffffffffffffffffffffffffffffff1673ffffffffffffffffffffffffffffffffffffffff16815260200190815260200160002060008573ffffffffffffffffffffffffffffffffffffffff1673ffffffffffffffffffffffffffffffffffffffff168152602001908152602001600020819055508015610f0f578273ffffffffffffffffffffffffffffffffffffffff168473ffffffffffffffffffffffffffffffffffffffff167f8c5be1e5ebec7d5bd14f71427d1e84f3dd0314c0f7b2291e5b200ac8c7c3b92584604051610f069190611319565b60405180910390a35b50505050565b600073ffffffffffffffffffffffffffffffffffffffff168373ffffffffffffffffffffffffffffffffffffffff1603610f67578060026000828254610f5b91906118fc565b9250508190555061103a565b60008060008573ffffffffffffffffffffffffffffffffffffffff1673ffffffffffffffffffffffffffffffffffffffff16815260200190815260200160002054905081811015610ff3578381836040517fe450d38c000000000000000000000000000000000000000000000000000000008152600401610fea9392919061198f565b60405180910390fd5b8181036000808673ffffffffffffffffffffffffffffffffffffffff1673ffffffffffffffffffffffffffffffffffffffff16815260200190815260200160002081905550505b600073ffffffffffffffffffffffffffffffffffffffff168273ffffffffffffffffffffffffffffffffffffffff160361108357806002600082825403925050819055506110d0565b806000808473ffffffffffffffffffffffffffffffffffffffff1673ffffffffffffffffffffffffffffffffffffffff168152602001908152602001600020600082825401925050819055505b8173ffffffffffffffffffffffffffffffffffffffff168373ffffffffffffffffffffffffffffffffffffffff167fddf252ad1be2c89b69c2b068fc378daa952ba7f163c4a11628f55a4df523b3ef8360405161112d9190611319565b60405180910390a3505050565b600081519050919050565b600082825260208201905092915050565b60005b83811015611174578082015181840152602081019050611159565b60008484015250505050565b6000601f19601f8301169050919050565b600061119c8261113a565b6111a68185611145565b93506111b6818560208601611156565b6111bf81611180565b840191505092915050565b600060208201905081810360008301526111e48184611191565b905092915050565b6000604051905090565b600080fd5b600080fd5b600073ffffffffffffffffffffffffffffffffffffffff82169050919050565b600061122b82611200565b9050919050565b61123b81611220565b811461124657600080fd5b50565b60008135905061125881611232565b92915050565b6000819050919050565b6112718161125e565b811461127c57600080fd5b50565b60008135905061128e81611268565b92915050565b600080604083850312156112ab576112aa6111f6565b5b60006112b985828601611249565b92505060206112ca8582860161127f565b9150509250929050565b60008115159050919050565b6112e9816112d4565b82525050565b600060208201905061130460008301846112e0565b92915050565b6113138161125e565b82525050565b600060208201905061132e600083018461130a565b92915050565b60008060006060848603121561134d5761134c6111f6565b5b600061135b86828701611249565b935050602061136c86828701611249565b925050604061137d8682870161127f565b9150509250925092565b600080fd5b600080fd5b600080fd5b60008083601f8401126113ac576113ab611387565b5b8235905067ffffffffffffffff8111156113c9576113c861138c565b5b6020830191508360018202830111156113e5576113e4611391565b5b9250929050565b600080600060408486031215611405576114046111f6565b5b60006114138682870161127f565b935050602084013567ffffffffffffffff811115611434576114336111fb565b5b61144086828701611396565b92509250509250925092565b600060ff82169050919050565b6114628161144c565b82525050565b600060208201905061147d6000830184611459565b92915050565b600060208284031215611499576114986111f6565b5b60006114a784828501611249565b91505092915050565b6114b981611220565b82525050565b60006020820190506114d460008301846114b0565b92915050565b600080602083850312156114f1576114f06111f6565b5b600083013567ffffffffffffffff81111561150f5761150e6111fb565b5b61151b85828601611396565b92509250509250929050565b600080fd5b7f4e487b7100000000000000000000000000000000000000000000000000000000600052604160045260246000fd5b61156482611180565b810181811067ffffffffffffffff821117156115835761158261152c565b5b80604052505050565b60006115966111ec565b90506115a2828261155b565b919050565b600067ffffffffffffffff8211156115c2576115c161152c565b5b6115cb82611180565b9050602081019050919050565b82818337600083830152505050565b60006115fa6115f5846115a7565b61158c565b90508281526020810184848401111561161657611615611527565b5b6116218482856115d8565b509392505050565b600082601f83011261163e5761163d611387565b5b813561164e8482602086016115e7565b91505092915050565b60006020828403121561166d5761166c6111f6565b5b600082013567ffffffffffffffff81111561168b5761168a6111fb565b5b61169784828501611629565b91505092915050565b600080604083850312156116b7576116b66111f6565b5b60006116c585828601611249565b92505060206116d685828601611249565b9150509250929050565b7f4e487b7100000000000000000000000000000000000000000000000000000000600052602260045260246000fd5b6000600282049050600182168061172757607f821691505b60208210810361173a576117396116e0565b5b50919050565b7f416d6f756e74206d757374206265203e20300000000000000000000000000000600082015250565b6000611776601283611145565b915061178182611740565b602082019050919050565b600060208201905081810360008301526117a581611769565b9050919050565b7f496e73756666696369656e742063726564697473000000000000000000000000600082015250565b60006117e2601483611145565b91506117ed826117ac565b602082019050919050565b60006020820190508181036000830152611811816117d5565b9050919050565b7f456d697373696f6e204944207265717569726564000000000000000000000000600082015250565b600061184e601483611145565b915061185982611818565b602082019050919050565b6000602082019050818103600083015261187d81611841565b9050919050565b600081905092915050565b600061189b8385611884565b93506118a88385846115d8565b82840190509392505050565b60006118c182848661188f565b91508190509392505050565b7f4e487b7100000000000000000000000000000000000000000000000000000000600052601160045260246000fd5b60006119078261125e565b91506119128361125e565b925082820190508082111561192a576119296118cd565b5b92915050565b600061193c8385611145565b93506119498385846115d8565b61195283611180565b840190509392505050565b6000604082019050611972600083018661130a565b8181036020830152611985818486611930565b9050949350505050565b60006060820190506119a460008301866114b0565b6119b1602083018561130a565b6119be604083018461130a565b94935050505056fea26469706673582212204d56bee9156192ffdd742816376afe73eb4ffa8bb069e646fe3249a47957fcdc64736f6c634300081c0033",
  "linkReferences": {},
  "deployedLinkReferences": {}
}